{
  "_format": "hh-sol-artifact-1",
  "contractName": "Safe",
  "sourceName": "contracts/SafeImplementaion.sol",
  "abi": [
    {
      "inputs": [],
      "name": "campaignAddress",
      "outputs": [
        {
          "internalType": "address",
          "name": "",
          "type": "address"
        }
      ],
      "stateMutability": "view",
      "type": "function"
    },
    {
      "inputs": [
        {
          "internalType": "address",
          "name": "_campaignAddress",
          "type": "address"
        }
      ],
      "name": "initialize",
      "outputs": [],
      "stateMutability": "nonpayable",
      "type": "function"
    }
  ],
  "bytecode": "0x608060405234801561001057600080fd5b5061014e806100206000396000f3fe608060405234801561001057600080fd5b50600436106100365760003560e01c806311765b271461003b578063c4d66de814610084575b600080fd5b60005461005b9073ffffffffffffffffffffffffffffffffffffffff1681565b60405173ffffffffffffffffffffffffffffffffffffffff909116815260200160405180910390f35b6100d96100923660046100db565b600080547fffffffffffffffffffffffff00000000000000000000000000000000000000001673ffffffffffffffffffffffffffffffffffffffff92909216919091179055565b005b6000602082840312156100ed57600080fd5b813573ffffffffffffffffffffffffffffffffffffffff8116811461011157600080fd5b939250505056fea264697066735822122018a5c08ab269868f8499d29adddddc89331ce5710c2393da7f4b718b1f9c4e8f64736f6c63430008140033",
  "linkReferences": {},
  "deployedLinkReferences": {}
}