{"contracts/temp/TempHyperclusterCampaign.sol":{"TempHyperclusterCampaign":{"abi":[{"anonymous":false,"inputs":[],"name":"MilestoneReached","type":"event"},{"anonymous":false,"inputs":[{"indexed":false,"internalType":"address","name":"sender","type":"address"},{"indexed":false,"internalType":"address","name":"referral","type":"address"}],"name":"ReferralAdded","type":"event"},{"anonymous":false,"inputs":[{"indexed":false,"internalType":"address","name":"claimer","type":"address"},{"indexed":false,"internalType":"uint256","name":"amount","type":"uint256"}],"name":"RewardsClaimed","type":"event"},{"inputs":[{"internalType":"address","name":"sender","type":"address"}],"name":"addReferral","outputs":[],"stateMutability":"nonpayable","type":"function"},{"inputs":[],"name":"claimRewards","outputs":[],"stateMutability":"nonpayable","type":"function"},{"inputs":[],"name":"endIn","outputs":[{"internalType":"uint256","name":"","type":"uint256"}],"stateMutability":"view","type":"function"},{"inputs":[{"components":[{"internalType":"address","name":"rewardTokenAddress","type":"address"},{"internalType":"address","name":"rootReferral","type":"address"},{"internalType":"uint256","name":"totalSupply","type":"uint256"},{"internalType":"uint256","name":"startIn","type":"uint256"},{"internalType":"uint256","name":"endIn","type":"uint256"},{"internalType":"string","name":"metadata","type":"string"}],"internalType":"struct ICampaign.CreateCampaignParams","name":"params","type":"tuple"},{"internalType":"address","name":"_safeAddress","type":"address"}],"name":"initialize","outputs":[{"internalType":"bool","name":"","type":"bool"}],"stateMutability":"nonpayable","type":"function"},{"inputs":[],"name":"metadata","outputs":[{"internalType":"string","name":"","type":"string"}],"stateMutability":"view","type":"function"},{"inputs":[],"name":"reachMilestone","outputs":[],"stateMutability":"nonpayable","type":"function"},{"inputs":[{"internalType":"address","name":"","type":"address"},{"internalType":"uint256","name":"","type":"uint256"}],"name":"referrals","outputs":[{"internalType":"address","name":"","type":"address"}],"stateMutability":"view","type":"function"},{"inputs":[{"internalType":"address","name":"","type":"address"}],"name":"referred","outputs":[{"internalType":"bool","name":"","type":"bool"}],"stateMutability":"view","type":"function"},{"inputs":[],"name":"rewardTokenAddress","outputs":[{"internalType":"address","name":"","type":"address"}],"stateMutability":"view","type":"function"},{"inputs":[],"name":"rootReferral","outputs":[{"internalType":"address","name":"","type":"address"}],"stateMutability":"view","type":"function"},{"inputs":[],"name":"safeAddress","outputs":[{"internalType":"address","name":"","type":"address"}],"stateMutability":"view","type":"function"},{"inputs":[],"name":"startIn","outputs":[{"internalType":"uint256","name":"","type":"uint256"}],"stateMutability":"view","type":"function"},{"inputs":[],"name":"totalSupply","outputs":[{"internalType":"uint256","name":"","type":"uint256"}],"stateMutability":"view","type":"function"}],"evm":{"bytecode":{"linkReferences":{},"object":"608060405234801561001057600080fd5b50610834806100206000396000f3fe608060405234801561001057600080fd5b50600436106100df5760003560e01c80635578110c1161008c578063be8817ad11610066578063be8817ad146101be578063c9fdf729146101c7578063e697b5d8146101d0578063e8aca46a146101e357600080fd5b80635578110c14610175578063a0388ca614610188578063a88d5415146101ab57600080fd5b8063372500ab116100bd578063372500ab14610135578063392f37e91461013d57806340b45cee1461015257600080fd5b806303706c6d146100e4578063125f9e33146100ee57806318160ddd1461011e575b600080fd5b6100ec6101f6565b005b600054610101906001600160a01b031681565b6040516001600160a01b0390911681526020015b60405180910390f35b61012760025481565b604051908152602001610115565b6100ec610221565b610145610260565b604051610115919061047b565b610165610160366004610555565b6102ee565b6040519015158152602001610115565b600654610101906001600160a01b031681565b610165610196366004610669565b60086020526000908152604090205460ff1681565b600154610101906001600160a01b031681565b61012760035481565b61012760045481565b6101016101de36600461068b565b61038c565b6100ec6101f1366004610669565b6103ba565b6040517f01a1c18cdbbb68f908d4efc1abba523ae6b7354f629d1e33c3f05c09984a063390600090a1565b6002546040805133815260208101929092527ffc30cddea38e2bf4d6ea7d3f9ed3b6ad7f176419f4963bd81318067a4aee73fe910160405180910390a1565b6005805461026d906106b5565b80601f0160208091040260200160405190810160405280929190818152602001828054610299906106b5565b80156102e65780601f106102bb576101008083540402835291602001916102e6565b820191906000526020600020905b8154815290600101906020018083116102c957829003601f168201915b505050505081565b8151600080546001600160a01b0392831673ffffffffffffffffffffffffffffffffffffffff199182161782556020850151600180549190941691161790915560408301516002556060830151600355608083015160045560a0830151600590610358908261073e565b5050600680546001600160a01b03831673ffffffffffffffffffffffffffffffffffffffff19909116179055600192915050565b600760205281600052604060002081600281106103a857600080fd5b01546001600160a01b03169150829050565b3360009081526008602052604090205460ff161561041f5760405162461bcd60e51b815260206004820152601260248201527f416c726561647920696e206e6574776f726b000000000000000000000000000060448201526064015b60405180910390fd5b6001600160a01b038116600052600760205260405162461bcd60e51b81526004016104169060208082526011908201527f4d6178696d756d20726566657272616c73000000000000000000000000000000604082015260600190565b600060208083528351808285015260005b818110156104a85785810183015185820160400152820161048c565b506000604082860101526040601f19601f8301168501019250505092915050565b634e487b7160e01b600052604160045260246000fd5b60405160c0810167ffffffffffffffff81118282101715610502576105026104c9565b60405290565b604051601f8201601f1916810167ffffffffffffffff81118282101715610531576105316104c9565b604052919050565b80356001600160a01b038116811461055057600080fd5b919050565b6000806040838503121561056857600080fd5b823567ffffffffffffffff8082111561058057600080fd5b9084019060c0828703121561059457600080fd5b61059c6104df565b6105a583610539565b815260206105b4818501610539565b8183015260408401356040830152606084013560608301526080840135608083015260a0840135838111156105e857600080fd5b80850194505087601f8501126105fd57600080fd5b83358381111561060f5761060f6104c9565b610621601f8201601f19168301610508565b9350808452888282870101111561063757600080fd5b80828601838601376000828286010152508260a083015281955061065c818801610539565b9450505050509250929050565b60006020828403121561067b57600080fd5b61068482610539565b9392505050565b6000806040838503121561069e57600080fd5b6106a783610539565b946020939093013593505050565b600181811c908216806106c957607f821691505b6020821081036106e957634e487b7160e01b600052602260045260246000fd5b50919050565b601f82111561073957600081815260208120601f850160051c810160208610156107165750805b601f850160051c820191505b8181101561073557828155600101610722565b5050505b505050565b815167ffffffffffffffff811115610758576107586104c9565b61076c8161076684546106b5565b846106ef565b602080601f8311600181146107a157600084156107895750858301515b600019600386901b1c1916600185901b178555610735565b600085815260208120601f198616915b828110156107d0578886015182559484019460019091019084016107b1565b50858210156107ee5787850151600019600388901b60f8161c191681555b5050505050600190811b0190555056fea26469706673582212207a17bc84d800258da9bb8e1f12f4729a7de5e33cd1e381b8e17443090c223bbd64736f6c63430008140033","opcodes":"PUSH1 0x80 PUSH1 0x40 MSTORE CALLVALUE DUP1 ISZERO PUSH2 0x10 JUMPI PUSH1 0x0 DUP1 REVERT JUMPDEST POP PUSH2 0x834 DUP1 PUSH2 0x20 PUSH1 0x0 CODECOPY PUSH1 0x0 RETURN INVALID PUSH1 0x80 PUSH1 0x40 MSTORE CALLVALUE DUP1 ISZERO PUSH2 0x10 JUMPI PUSH1 0x0 DUP1 REVERT JUMPDEST POP PUSH1 0x4 CALLDATASIZE LT PUSH2 0xDF JUMPI PUSH1 0x0 CALLDATALOAD PUSH1 0xE0 SHR DUP1 PUSH4 0x5578110C GT PUSH2 0x8C JUMPI DUP1 PUSH4 0xBE8817AD GT PUSH2 0x66 JUMPI DUP1 PUSH4 0xBE8817AD EQ PUSH2 0x1BE JUMPI DUP1 PUSH4 0xC9FDF729 EQ PUSH2 0x1C7 JUMPI DUP1 PUSH4 0xE697B5D8 EQ PUSH2 0x1D0 JUMPI DUP1 PUSH4 0xE8ACA46A EQ PUSH2 0x1E3 JUMPI PUSH1 0x0 DUP1 REVERT JUMPDEST DUP1 PUSH4 0x5578110C EQ PUSH2 0x175 JUMPI DUP1 PUSH4 0xA0388CA6 EQ PUSH2 0x188 JUMPI DUP1 PUSH4 0xA88D5415 EQ PUSH2 0x1AB JUMPI PUSH1 0x0 DUP1 REVERT JUMPDEST DUP1 PUSH4 0x372500AB GT PUSH2 0xBD JUMPI DUP1 PUSH4 0x372500AB EQ PUSH2 0x135 JUMPI DUP1 PUSH4 0x392F37E9 EQ PUSH2 0x13D JUMPI DUP1 PUSH4 0x40B45CEE EQ PUSH2 0x152 JUMPI PUSH1 0x0 DUP1 REVERT JUMPDEST DUP1 PUSH4 0x3706C6D EQ PUSH2 0xE4 JUMPI DUP1 PUSH4 0x125F9E33 EQ PUSH2 0xEE JUMPI DUP1 PUSH4 0x18160DDD EQ PUSH2 0x11E JUMPI JUMPDEST PUSH1 0x0 DUP1 REVERT JUMPDEST PUSH2 0xEC PUSH2 0x1F6 JUMP JUMPDEST STOP JUMPDEST PUSH1 0x0 SLOAD PUSH2 0x101 SWAP1 PUSH1 0x1 PUSH1 0x1 PUSH1 0xA0 SHL SUB AND DUP2 JUMP JUMPDEST PUSH1 0x40 MLOAD PUSH1 0x1 PUSH1 0x1 PUSH1 0xA0 SHL SUB SWAP1 SWAP2 AND DUP2 MSTORE PUSH1 0x20 ADD JUMPDEST PUSH1 0x40 MLOAD DUP1 SWAP2 SUB SWAP1 RETURN JUMPDEST PUSH2 0x127 PUSH1 0x2 SLOAD DUP2 JUMP JUMPDEST PUSH1 0x40 MLOAD SWAP1 DUP2 MSTORE PUSH1 0x20 ADD PUSH2 0x115 JUMP JUMPDEST PUSH2 0xEC PUSH2 0x221 JUMP JUMPDEST PUSH2 0x145 PUSH2 0x260 JUMP JUMPDEST PUSH1 0x40 MLOAD PUSH2 0x115 SWAP2 SWAP1 PUSH2 0x47B JUMP JUMPDEST PUSH2 0x165 PUSH2 0x160 CALLDATASIZE PUSH1 0x4 PUSH2 0x555 JUMP JUMPDEST PUSH2 0x2EE JUMP JUMPDEST PUSH1 0x40 MLOAD SWAP1 ISZERO ISZERO DUP2 MSTORE PUSH1 0x20 ADD PUSH2 0x115 JUMP JUMPDEST PUSH1 0x6 SLOAD PUSH2 0x101 SWAP1 PUSH1 0x1 PUSH1 0x1 PUSH1 0xA0 SHL SUB AND DUP2 JUMP JUMPDEST PUSH2 0x165 PUSH2 0x196 CALLDATASIZE PUSH1 0x4 PUSH2 0x669 JUMP JUMPDEST PUSH1 0x8 PUSH1 0x20 MSTORE PUSH1 0x0 SWAP1 DUP2 MSTORE PUSH1 0x40 SWAP1 KECCAK256 SLOAD PUSH1 0xFF AND DUP2 JUMP JUMPDEST PUSH1 0x1 SLOAD PUSH2 0x101 SWAP1 PUSH1 0x1 PUSH1 0x1 PUSH1 0xA0 SHL SUB AND DUP2 JUMP JUMPDEST PUSH2 0x127 PUSH1 0x3 SLOAD DUP2 JUMP JUMPDEST PUSH2 0x127 PUSH1 0x4 SLOAD DUP2 JUMP JUMPDEST PUSH2 0x101 PUSH2 0x1DE CALLDATASIZE PUSH1 0x4 PUSH2 0x68B JUMP JUMPDEST PUSH2 0x38C JUMP JUMPDEST PUSH2 0xEC PUSH2 0x1F1 CALLDATASIZE PUSH1 0x4 PUSH2 0x669 JUMP JUMPDEST PUSH2 0x3BA JUMP JUMPDEST PUSH1 0x40 MLOAD PUSH32 0x1A1C18CDBBB68F908D4EFC1ABBA523AE6B7354F629D1E33C3F05C09984A0633 SWAP1 PUSH1 0x0 SWAP1 LOG1 JUMP JUMPDEST PUSH1 0x2 SLOAD PUSH1 0x40 DUP1 MLOAD CALLER DUP2 MSTORE PUSH1 0x20 DUP2 ADD SWAP3 SWAP1 SWAP3 MSTORE PUSH32 0xFC30CDDEA38E2BF4D6EA7D3F9ED3B6AD7F176419F4963BD81318067A4AEE73FE SWAP2 ADD PUSH1 0x40 MLOAD DUP1 SWAP2 SUB SWAP1 LOG1 JUMP JUMPDEST PUSH1 0x5 DUP1 SLOAD PUSH2 0x26D SWAP1 PUSH2 0x6B5 JUMP JUMPDEST DUP1 PUSH1 0x1F ADD PUSH1 0x20 DUP1 SWAP2 DIV MUL PUSH1 0x20 ADD PUSH1 0x40 MLOAD SWAP1 DUP2 ADD PUSH1 0x40 MSTORE DUP1 SWAP3 SWAP2 SWAP1 DUP2 DUP2 MSTORE PUSH1 0x20 ADD DUP3 DUP1 SLOAD PUSH2 0x299 SWAP1 PUSH2 0x6B5 JUMP JUMPDEST DUP1 ISZERO PUSH2 0x2E6 JUMPI DUP1 PUSH1 0x1F LT PUSH2 0x2BB JUMPI PUSH2 0x100 DUP1 DUP4 SLOAD DIV MUL DUP4 MSTORE SWAP2 PUSH1 0x20 ADD SWAP2 PUSH2 0x2E6 JUMP JUMPDEST DUP3 ADD SWAP2 SWAP1 PUSH1 0x0 MSTORE PUSH1 0x20 PUSH1 0x0 KECCAK256 SWAP1 JUMPDEST DUP2 SLOAD DUP2 MSTORE SWAP1 PUSH1 0x1 ADD SWAP1 PUSH1 0x20 ADD DUP1 DUP4 GT PUSH2 0x2C9 JUMPI DUP3 SWAP1 SUB PUSH1 0x1F AND DUP3 ADD SWAP2 JUMPDEST POP POP POP POP POP DUP2 JUMP JUMPDEST DUP2 MLOAD PUSH1 0x0 DUP1 SLOAD PUSH1 0x1 PUSH1 0x1 PUSH1 0xA0 SHL SUB SWAP3 DUP4 AND PUSH20 0xFFFFFFFFFFFFFFFFFFFFFFFFFFFFFFFFFFFFFFFF NOT SWAP2 DUP3 AND OR DUP3 SSTORE PUSH1 0x20 DUP6 ADD MLOAD PUSH1 0x1 DUP1 SLOAD SWAP2 SWAP1 SWAP5 AND SWAP2 AND OR SWAP1 SWAP2 SSTORE PUSH1 0x40 DUP4 ADD MLOAD PUSH1 0x2 SSTORE PUSH1 0x60 DUP4 ADD MLOAD PUSH1 0x3 SSTORE PUSH1 0x80 DUP4 ADD MLOAD PUSH1 0x4 SSTORE PUSH1 0xA0 DUP4 ADD MLOAD PUSH1 0x5 SWAP1 PUSH2 0x358 SWAP1 DUP3 PUSH2 0x73E JUMP JUMPDEST POP POP PUSH1 0x6 DUP1 SLOAD PUSH1 0x1 PUSH1 0x1 PUSH1 0xA0 SHL SUB DUP4 AND PUSH20 0xFFFFFFFFFFFFFFFFFFFFFFFFFFFFFFFFFFFFFFFF NOT SWAP1 SWAP2 AND OR SWAP1 SSTORE PUSH1 0x1 SWAP3 SWAP2 POP POP JUMP JUMPDEST PUSH1 0x7 PUSH1 0x20 MSTORE DUP2 PUSH1 0x0 MSTORE PUSH1 0x40 PUSH1 0x0 KECCAK256 DUP2 PUSH1 0x2 DUP2 LT PUSH2 0x3A8 JUMPI PUSH1 0x0 DUP1 REVERT JUMPDEST ADD SLOAD PUSH1 0x1 PUSH1 0x1 PUSH1 0xA0 SHL SUB AND SWAP2 POP DUP3 SWAP1 POP JUMP JUMPDEST CALLER PUSH1 0x0 SWAP1 DUP2 MSTORE PUSH1 0x8 PUSH1 0x20 MSTORE PUSH1 0x40 SWAP1 KECCAK256 SLOAD PUSH1 0xFF AND ISZERO PUSH2 0x41F JUMPI PUSH1 0x40 MLOAD PUSH3 0x461BCD PUSH1 0xE5 SHL DUP2 MSTORE PUSH1 0x20 PUSH1 0x4 DUP3 ADD MSTORE PUSH1 0x12 PUSH1 0x24 DUP3 ADD MSTORE PUSH32 0x416C726561647920696E206E6574776F726B0000000000000000000000000000 PUSH1 0x44 DUP3 ADD MSTORE PUSH1 0x64 ADD JUMPDEST PUSH1 0x40 MLOAD DUP1 SWAP2 SUB SWAP1 REVERT JUMPDEST PUSH1 0x1 PUSH1 0x1 PUSH1 0xA0 SHL SUB DUP2 AND PUSH1 0x0 MSTORE PUSH1 0x7 PUSH1 0x20 MSTORE PUSH1 0x40 MLOAD PUSH3 0x461BCD PUSH1 0xE5 SHL DUP2 MSTORE PUSH1 0x4 ADD PUSH2 0x416 SWAP1 PUSH1 0x20 DUP1 DUP3 MSTORE PUSH1 0x11 SWAP1 DUP3 ADD MSTORE PUSH32 0x4D6178696D756D20726566657272616C73000000000000000000000000000000 PUSH1 0x40 DUP3 ADD MSTORE PUSH1 0x60 ADD SWAP1 JUMP JUMPDEST PUSH1 0x0 PUSH1 0x20 DUP1 DUP4 MSTORE DUP4 MLOAD DUP1 DUP3 DUP6 ADD MSTORE PUSH1 0x0 JUMPDEST DUP2 DUP2 LT ISZERO PUSH2 0x4A8 JUMPI DUP6 DUP2 ADD DUP4 ADD MLOAD DUP6 DUP3 ADD PUSH1 0x40 ADD MSTORE DUP3 ADD PUSH2 0x48C JUMP JUMPDEST POP PUSH1 0x0 PUSH1 0x40 DUP3 DUP7 ADD ADD MSTORE PUSH1 0x40 PUSH1 0x1F NOT PUSH1 0x1F DUP4 ADD AND DUP6 ADD ADD SWAP3 POP POP POP SWAP3 SWAP2 POP POP JUMP JUMPDEST PUSH4 0x4E487B71 PUSH1 0xE0 SHL PUSH1 0x0 MSTORE PUSH1 0x41 PUSH1 0x4 MSTORE PUSH1 0x24 PUSH1 0x0 REVERT JUMPDEST PUSH1 0x40 MLOAD PUSH1 0xC0 DUP2 ADD PUSH8 0xFFFFFFFFFFFFFFFF DUP2 GT DUP3 DUP3 LT OR ISZERO PUSH2 0x502 JUMPI PUSH2 0x502 PUSH2 0x4C9 JUMP JUMPDEST PUSH1 0x40 MSTORE SWAP1 JUMP JUMPDEST PUSH1 0x40 MLOAD PUSH1 0x1F DUP3 ADD PUSH1 0x1F NOT AND DUP2 ADD PUSH8 0xFFFFFFFFFFFFFFFF DUP2 GT DUP3 DUP3 LT OR ISZERO PUSH2 0x531 JUMPI PUSH2 0x531 PUSH2 0x4C9 JUMP JUMPDEST PUSH1 0x40 MSTORE SWAP2 SWAP1 POP JUMP JUMPDEST DUP1 CALLDATALOAD PUSH1 0x1 PUSH1 0x1 PUSH1 0xA0 SHL SUB DUP2 AND DUP2 EQ PUSH2 0x550 JUMPI PUSH1 0x0 DUP1 REVERT JUMPDEST SWAP2 SWAP1 POP JUMP JUMPDEST PUSH1 0x0 DUP1 PUSH1 0x40 DUP4 DUP6 SUB SLT ISZERO PUSH2 0x568 JUMPI PUSH1 0x0 DUP1 REVERT JUMPDEST DUP3 CALLDATALOAD PUSH8 0xFFFFFFFFFFFFFFFF DUP1 DUP3 GT ISZERO PUSH2 0x580 JUMPI PUSH1 0x0 DUP1 REVERT JUMPDEST SWAP1 DUP5 ADD SWAP1 PUSH1 0xC0 DUP3 DUP8 SUB SLT ISZERO PUSH2 0x594 JUMPI PUSH1 0x0 DUP1 REVERT JUMPDEST PUSH2 0x59C PUSH2 0x4DF JUMP JUMPDEST PUSH2 0x5A5 DUP4 PUSH2 0x539 JUMP JUMPDEST DUP2 MSTORE PUSH1 0x20 PUSH2 0x5B4 DUP2 DUP6 ADD PUSH2 0x539 JUMP JUMPDEST DUP2 DUP4 ADD MSTORE PUSH1 0x40 DUP5 ADD CALLDATALOAD PUSH1 0x40 DUP4 ADD MSTORE PUSH1 0x60 DUP5 ADD CALLDATALOAD PUSH1 0x60 DUP4 ADD MSTORE PUSH1 0x80 DUP5 ADD CALLDATALOAD PUSH1 0x80 DUP4 ADD MSTORE PUSH1 0xA0 DUP5 ADD CALLDATALOAD DUP4 DUP2 GT ISZERO PUSH2 0x5E8 JUMPI PUSH1 0x0 DUP1 REVERT JUMPDEST DUP1 DUP6 ADD SWAP5 POP POP DUP8 PUSH1 0x1F DUP6 ADD SLT PUSH2 0x5FD JUMPI PUSH1 0x0 DUP1 REVERT JUMPDEST DUP4 CALLDATALOAD DUP4 DUP2 GT ISZERO PUSH2 0x60F JUMPI PUSH2 0x60F PUSH2 0x4C9 JUMP JUMPDEST PUSH2 0x621 PUSH1 0x1F DUP3 ADD PUSH1 0x1F NOT AND DUP4 ADD PUSH2 0x508 JUMP JUMPDEST SWAP4 POP DUP1 DUP5 MSTORE DUP9 DUP3 DUP3 DUP8 ADD ADD GT ISZERO PUSH2 0x637 JUMPI PUSH1 0x0 DUP1 REVERT JUMPDEST DUP1 DUP3 DUP7 ADD DUP4 DUP7 ADD CALLDATACOPY PUSH1 0x0 DUP3 DUP3 DUP7 ADD ADD MSTORE POP DUP3 PUSH1 0xA0 DUP4 ADD MSTORE DUP2 SWAP6 POP PUSH2 0x65C DUP2 DUP9 ADD PUSH2 0x539 JUMP JUMPDEST SWAP5 POP POP POP POP POP SWAP3 POP SWAP3 SWAP1 POP JUMP JUMPDEST PUSH1 0x0 PUSH1 0x20 DUP3 DUP5 SUB SLT ISZERO PUSH2 0x67B JUMPI PUSH1 0x0 DUP1 REVERT JUMPDEST PUSH2 0x684 DUP3 PUSH2 0x539 JUMP JUMPDEST SWAP4 SWAP3 POP POP POP JUMP JUMPDEST PUSH1 0x0 DUP1 PUSH1 0x40 DUP4 DUP6 SUB SLT ISZERO PUSH2 0x69E JUMPI PUSH1 0x0 DUP1 REVERT JUMPDEST PUSH2 0x6A7 DUP4 PUSH2 0x539 JUMP JUMPDEST SWAP5 PUSH1 0x20 SWAP4 SWAP1 SWAP4 ADD CALLDATALOAD SWAP4 POP POP POP JUMP JUMPDEST PUSH1 0x1 DUP2 DUP2 SHR SWAP1 DUP3 AND DUP1 PUSH2 0x6C9 JUMPI PUSH1 0x7F DUP3 AND SWAP2 POP JUMPDEST PUSH1 0x20 DUP3 LT DUP2 SUB PUSH2 0x6E9 JUMPI PUSH4 0x4E487B71 PUSH1 0xE0 SHL PUSH1 0x0 MSTORE PUSH1 0x22 PUSH1 0x4 MSTORE PUSH1 0x24 PUSH1 0x0 REVERT JUMPDEST POP SWAP2 SWAP1 POP JUMP JUMPDEST PUSH1 0x1F DUP3 GT ISZERO PUSH2 0x739 JUMPI PUSH1 0x0 DUP2 DUP2 MSTORE PUSH1 0x20 DUP2 KECCAK256 PUSH1 0x1F DUP6 ADD PUSH1 0x5 SHR DUP2 ADD PUSH1 0x20 DUP7 LT ISZERO PUSH2 0x716 JUMPI POP DUP1 JUMPDEST PUSH1 0x1F DUP6 ADD PUSH1 0x5 SHR DUP3 ADD SWAP2 POP JUMPDEST DUP2 DUP2 LT ISZERO PUSH2 0x735 JUMPI DUP3 DUP2 SSTORE PUSH1 0x1 ADD PUSH2 0x722 JUMP JUMPDEST POP POP POP JUMPDEST POP POP POP JUMP JUMPDEST DUP2 MLOAD PUSH8 0xFFFFFFFFFFFFFFFF DUP2 GT ISZERO PUSH2 0x758 JUMPI PUSH2 0x758 PUSH2 0x4C9 JUMP JUMPDEST PUSH2 0x76C DUP2 PUSH2 0x766 DUP5 SLOAD PUSH2 0x6B5 JUMP JUMPDEST DUP5 PUSH2 0x6EF JUMP JUMPDEST PUSH1 0x20 DUP1 PUSH1 0x1F DUP4 GT PUSH1 0x1 DUP2 EQ PUSH2 0x7A1 JUMPI PUSH1 0x0 DUP5 ISZERO PUSH2 0x789 JUMPI POP DUP6 DUP4 ADD MLOAD JUMPDEST PUSH1 0x0 NOT PUSH1 0x3 DUP7 SWAP1 SHL SHR NOT AND PUSH1 0x1 DUP6 SWAP1 SHL OR DUP6 SSTORE PUSH2 0x735 JUMP JUMPDEST PUSH1 0x0 DUP6 DUP2 MSTORE PUSH1 0x20 DUP2 KECCAK256 PUSH1 0x1F NOT DUP7 AND SWAP2 JUMPDEST DUP3 DUP2 LT ISZERO PUSH2 0x7D0 JUMPI DUP9 DUP7 ADD MLOAD DUP3 SSTORE SWAP5 DUP5 ADD SWAP5 PUSH1 0x1 SWAP1 SWAP2 ADD SWAP1 DUP5 ADD PUSH2 0x7B1 JUMP JUMPDEST POP DUP6 DUP3 LT ISZERO PUSH2 0x7EE JUMPI DUP8 DUP6 ADD MLOAD PUSH1 0x0 NOT PUSH1 0x3 DUP9 SWAP1 SHL PUSH1 0xF8 AND SHR NOT AND DUP2 SSTORE JUMPDEST POP POP POP POP POP PUSH1 0x1 SWAP1 DUP2 SHL ADD SWAP1 SSTORE POP JUMP INVALID LOG2 PUSH5 0x6970667358 0x22 SLT KECCAK256 PUSH27 0x17BC84D800258DA9BB8E1F12F4729A7DE5E33CD1E381B8E1744309 0xC 0x22 EXTCODESIZE 0xBD PUSH5 0x736F6C6343 STOP ADDMOD EQ STOP CALLER "},"methodIdentifiers":{"addReferral(address)":"e8aca46a","claimRewards()":"372500ab","endIn()":"c9fdf729","initialize((address,address,uint256,uint256,uint256,string),address)":"40b45cee","metadata()":"392f37e9","reachMilestone()":"03706c6d","referrals(address,uint256)":"e697b5d8","referred(address)":"a0388ca6","rewardTokenAddress()":"125f9e33","rootReferral()":"a88d5415","safeAddress()":"5578110c","startIn()":"be8817ad","totalSupply()":"18160ddd"}}}}}