{
  "_format": "hh-sol-artifact-1",
  "contractName": "TempHyperclusterCampaign",
  "sourceName": "contracts/temp/TempHyperclusterCampaign.sol",
  "abi": [
    {
      "anonymous": false,
      "inputs": [],
      "name": "MilestoneReached",
      "type": "event"
    },
    {
      "anonymous": false,
      "inputs": [
        {
          "indexed": false,
          "internalType": "address",
          "name": "sender",
          "type": "address"
        },
        {
          "indexed": false,
          "internalType": "address",
          "name": "referral",
          "type": "address"
        }
      ],
      "name": "ReferralAdded",
      "type": "event"
    },
    {
      "anonymous": false,
      "inputs": [
        {
          "indexed": false,
          "internalType": "address",
          "name": "claimer",
          "type": "address"
        },
        {
          "indexed": false,
          "internalType": "uint256",
          "name": "amount",
          "type": "uint256"
        }
      ],
      "name": "RewardsClaimed",
      "type": "event"
    },
    {
      "inputs": [
        {
          "internalType": "address",
          "name": "sender",
          "type": "address"
        }
      ],
      "name": "addReferral",
      "outputs": [],
      "stateMutability": "nonpayable",
      "type": "function"
    },
    {
      "inputs": [],
      "name": "claimRewards",
      "outputs": [],
      "stateMutability": "nonpayable",
      "type": "function"
    },
    {
      "inputs": [],
      "name": "endIn",
      "outputs": [
        {
          "internalType": "uint256",
          "name": "",
          "type": "uint256"
        }
      ],
      "stateMutability": "view",
      "type": "function"
    },
    {
      "inputs": [
        {
          "components": [
            {
              "internalType": "address",
              "name": "rewardTokenAddress",
              "type": "address"
            },
            {
              "internalType": "address",
              "name": "rootReferral",
              "type": "address"
            },
            {
              "internalType": "uint256",
              "name": "totalSupply",
              "type": "uint256"
            },
            {
              "internalType": "uint256",
              "name": "startIn",
              "type": "uint256"
            },
            {
              "internalType": "uint256",
              "name": "endIn",
              "type": "uint256"
            },
            {
              "internalType": "string",
              "name": "metadata",
              "type": "string"
            }
          ],
          "internalType": "struct ICampaign.CreateCampaignParams",
          "name": "params",
          "type": "tuple"
        },
        {
          "internalType": "address",
          "name": "_safeAddress",
          "type": "address"
        }
      ],
      "name": "initialize",
      "outputs": [
        {
          "internalType": "bool",
          "name": "",
          "type": "bool"
        }
      ],
      "stateMutability": "nonpayable",
      "type": "function"
    },
    {
      "inputs": [],
      "name": "metadata",
      "outputs": [
        {
          "internalType": "string",
          "name": "",
          "type": "string"
        }
      ],
      "stateMutability": "view",
      "type": "function"
    },
    {
      "inputs": [],
      "name": "reachMilestone",
      "outputs": [],
      "stateMutability": "nonpayable",
      "type": "function"
    },
    {
      "inputs": [
        {
          "internalType": "address",
          "name": "",
          "type": "address"
        },
        {
          "internalType": "uint256",
          "name": "",
          "type": "uint256"
        }
      ],
      "name": "referrals",
      "outputs": [
        {
          "internalType": "address",
          "name": "",
          "type": "address"
        }
      ],
      "stateMutability": "view",
      "type": "function"
    },
    {
      "inputs": [
        {
          "internalType": "address",
          "name": "",
          "type": "address"
        }
      ],
      "name": "referred",
      "outputs": [
        {
          "internalType": "bool",
          "name": "",
          "type": "bool"
        }
      ],
      "stateMutability": "view",
      "type": "function"
    },
    {
      "inputs": [],
      "name": "rewardTokenAddress",
      "outputs": [
        {
          "internalType": "address",
          "name": "",
          "type": "address"
        }
      ],
      "stateMutability": "view",
      "type": "function"
    },
    {
      "inputs": [],
      "name": "rootReferral",
      "outputs": [
        {
          "internalType": "address",
          "name": "",
          "type": "address"
        }
      ],
      "stateMutability": "view",
      "type": "function"
    },
    {
      "inputs": [],
      "name": "safeAddress",
      "outputs": [
        {
          "internalType": "address",
          "name": "",
          "type": "address"
        }
      ],
      "stateMutability": "view",
      "type": "function"
    },
    {
      "inputs": [],
      "name": "startIn",
      "outputs": [
        {
          "internalType": "uint256",
          "name": "",
          "type": "uint256"
        }
      ],
      "stateMutability": "view",
      "type": "function"
    },
    {
      "inputs": [],
      "name": "totalSupply",
      "outputs": [
        {
          "internalType": "uint256",
          "name": "",
          "type": "uint256"
        }
      ],
      "stateMutability": "view",
      "type": "function"
    }
  ],
  "bytecode": "0x608060405234801561001057600080fd5b50610834806100206000396000f3fe608060405234801561001057600080fd5b50600436106100df5760003560e01c80635578110c1161008c578063be8817ad11610066578063be8817ad146101be578063c9fdf729146101c7578063e697b5d8146101d0578063e8aca46a146101e357600080fd5b80635578110c14610175578063a0388ca614610188578063a88d5415146101ab57600080fd5b8063372500ab116100bd578063372500ab14610135578063392f37e91461013d57806340b45cee1461015257600080fd5b806303706c6d146100e4578063125f9e33146100ee57806318160ddd1461011e575b600080fd5b6100ec6101f6565b005b600054610101906001600160a01b031681565b6040516001600160a01b0390911681526020015b60405180910390f35b61012760025481565b604051908152602001610115565b6100ec610221565b610145610260565b604051610115919061047b565b610165610160366004610555565b6102ee565b6040519015158152602001610115565b600654610101906001600160a01b031681565b610165610196366004610669565b60086020526000908152604090205460ff1681565b600154610101906001600160a01b031681565b61012760035481565b61012760045481565b6101016101de36600461068b565b61038c565b6100ec6101f1366004610669565b6103ba565b6040517f01a1c18cdbbb68f908d4efc1abba523ae6b7354f629d1e33c3f05c09984a063390600090a1565b6002546040805133815260208101929092527ffc30cddea38e2bf4d6ea7d3f9ed3b6ad7f176419f4963bd81318067a4aee73fe910160405180910390a1565b6005805461026d906106b5565b80601f0160208091040260200160405190810160405280929190818152602001828054610299906106b5565b80156102e65780601f106102bb576101008083540402835291602001916102e6565b820191906000526020600020905b8154815290600101906020018083116102c957829003601f168201915b505050505081565b8151600080546001600160a01b0392831673ffffffffffffffffffffffffffffffffffffffff199182161782556020850151600180549190941691161790915560408301516002556060830151600355608083015160045560a0830151600590610358908261073e565b5050600680546001600160a01b03831673ffffffffffffffffffffffffffffffffffffffff19909116179055600192915050565b600760205281600052604060002081600281106103a857600080fd5b01546001600160a01b03169150829050565b3360009081526008602052604090205460ff161561041f5760405162461bcd60e51b815260206004820152601260248201527f416c726561647920696e206e6574776f726b000000000000000000000000000060448201526064015b60405180910390fd5b6001600160a01b038116600052600760205260405162461bcd60e51b81526004016104169060208082526011908201527f4d6178696d756d20726566657272616c73000000000000000000000000000000604082015260600190565b600060208083528351808285015260005b818110156104a85785810183015185820160400152820161048c565b506000604082860101526040601f19601f8301168501019250505092915050565b634e487b7160e01b600052604160045260246000fd5b60405160c0810167ffffffffffffffff81118282101715610502576105026104c9565b60405290565b604051601f8201601f1916810167ffffffffffffffff81118282101715610531576105316104c9565b604052919050565b80356001600160a01b038116811461055057600080fd5b919050565b6000806040838503121561056857600080fd5b823567ffffffffffffffff8082111561058057600080fd5b9084019060c0828703121561059457600080fd5b61059c6104df565b6105a583610539565b815260206105b4818501610539565b8183015260408401356040830152606084013560608301526080840135608083015260a0840135838111156105e857600080fd5b80850194505087601f8501126105fd57600080fd5b83358381111561060f5761060f6104c9565b610621601f8201601f19168301610508565b9350808452888282870101111561063757600080fd5b80828601838601376000828286010152508260a083015281955061065c818801610539565b9450505050509250929050565b60006020828403121561067b57600080fd5b61068482610539565b9392505050565b6000806040838503121561069e57600080fd5b6106a783610539565b946020939093013593505050565b600181811c908216806106c957607f821691505b6020821081036106e957634e487b7160e01b600052602260045260246000fd5b50919050565b601f82111561073957600081815260208120601f850160051c810160208610156107165750805b601f850160051c820191505b8181101561073557828155600101610722565b5050505b505050565b815167ffffffffffffffff811115610758576107586104c9565b61076c8161076684546106b5565b846106ef565b602080601f8311600181146107a157600084156107895750858301515b600019600386901b1c1916600185901b178555610735565b600085815260208120601f198616915b828110156107d0578886015182559484019460019091019084016107b1565b50858210156107ee5787850151600019600388901b60f8161c191681555b5050505050600190811b0190555056fea26469706673582212207a17bc84d800258da9bb8e1f12f4729a7de5e33cd1e381b8e17443090c223bbd64736f6c63430008140033",
  "linkReferences": {},
  "deployedLinkReferences": {}
}