{
  "_format": "hh-sol-artifact-1",
  "contractName": "HyperclusterFactory",
  "sourceName": "contracts/temp/TempHyperclusterFactory.sol",
  "abi": [
    {
      "inputs": [
        {
          "internalType": "address",
          "name": "_campaignImplementation",
          "type": "address"
        }
      ],
      "stateMutability": "nonpayable",
      "type": "constructor"
    },
    {
      "inputs": [],
      "name": "Create2EmptyBytecode",
      "type": "error"
    },
    {
      "inputs": [],
      "name": "Create2FailedDeployment",
      "type": "error"
    },
    {
      "inputs": [
        {
          "internalType": "uint256",
          "name": "balance",
          "type": "uint256"
        },
        {
          "internalType": "uint256",
          "name": "needed",
          "type": "uint256"
        }
      ],
      "name": "Create2InsufficientBalance",
      "type": "error"
    },
    {
      "anonymous": false,
      "inputs": [
        {
          "indexed": false,
          "internalType": "address",
          "name": "campaign",
          "type": "address"
        },
        {
          "indexed": false,
          "internalType": "address",
          "name": "safeAddress",
          "type": "address"
        },
        {
          "indexed": false,
          "internalType": "address",
          "name": "rewardTokenAddress",
          "type": "address"
        },
        {
          "indexed": false,
          "internalType": "address",
          "name": "rootReferral",
          "type": "address"
        },
        {
          "indexed": false,
          "internalType": "uint256",
          "name": "tokenAmount",
          "type": "uint256"
        },
        {
          "indexed": false,
          "internalType": "uint256",
          "name": "startIn",
          "type": "uint256"
        },
        {
          "indexed": false,
          "internalType": "uint256",
          "name": "endIn",
          "type": "uint256"
        },
        {
          "indexed": false,
          "internalType": "string",
          "name": "metadata",
          "type": "string"
        }
      ],
      "name": "CamapignCreated",
      "type": "event"
    },
    {
      "inputs": [],
      "name": "admin",
      "outputs": [
        {
          "internalType": "address",
          "name": "",
          "type": "address"
        }
      ],
      "stateMutability": "view",
      "type": "function"
    },
    {
      "inputs": [
        {
          "internalType": "address",
          "name": "campaign",
          "type": "address"
        }
      ],
      "name": "campaignExists",
      "outputs": [
        {
          "internalType": "bool",
          "name": "",
          "type": "bool"
        }
      ],
      "stateMutability": "view",
      "type": "function"
    },
    {
      "inputs": [],
      "name": "campaignImplementation",
      "outputs": [
        {
          "internalType": "address",
          "name": "",
          "type": "address"
        }
      ],
      "stateMutability": "view",
      "type": "function"
    },
    {
      "inputs": [
        {
          "internalType": "address",
          "name": "",
          "type": "address"
        }
      ],
      "name": "campaigns",
      "outputs": [
        {
          "internalType": "bool",
          "name": "",
          "type": "bool"
        }
      ],
      "stateMutability": "view",
      "type": "function"
    },
    {
      "inputs": [
        {
          "components": [
            {
              "internalType": "address",
              "name": "rewardTokenAddress",
              "type": "address"
            },
            {
              "internalType": "address",
              "name": "rootReferral",
              "type": "address"
            },
            {
              "internalType": "uint256",
              "name": "totalSupply",
              "type": "uint256"
            },
            {
              "internalType": "uint256",
              "name": "startIn",
              "type": "uint256"
            },
            {
              "internalType": "uint256",
              "name": "endIn",
              "type": "uint256"
            },
            {
              "internalType": "string",
              "name": "metadata",
              "type": "string"
            }
          ],
          "internalType": "struct ICampaign.CreateCampaignParams",
          "name": "params",
          "type": "tuple"
        }
      ],
      "name": "createCampaign",
      "outputs": [
        {
          "internalType": "address",
          "name": "",
          "type": "address"
        }
      ],
      "stateMutability": "payable",
      "type": "function"
    },
    {
      "inputs": [],
      "name": "nonce",
      "outputs": [
        {
          "internalType": "uint256",
          "name": "",
          "type": "uint256"
        }
      ],
      "stateMutability": "view",
      "type": "function"
    },
    {
      "inputs": [],
      "name": "safeImplementation",
      "outputs": [
        {
          "internalType": "address",
          "name": "",
          "type": "address"
        }
      ],
      "stateMutability": "view",
      "type": "function"
    }
  ],
  "bytecode": "0x608060405234801561001057600080fd5b5060405161099e38038061099e83398101604081905261002f91610061565b600280546001600160a01b039092166001600160a01b0319928316179055600480549091163317905560008055610091565b60006020828403121561007357600080fd5b81516001600160a01b038116811461008a57600080fd5b9392505050565b6108fe806100a06000396000f3fe6080604052600436106100705760003560e01c8063affed0e01161004e578063affed0e01461012b578063b86126201461014f578063ceb99fc414610162578063f851a4401461018257600080fd5b80631601d0b51461007557806338356b79146100ba57806362a6e065146100f3575b600080fd5b34801561008157600080fd5b506100a5610090366004610553565b60016020526000908152604090205460ff1681565b60405190151581526020015b60405180910390f35b3480156100c657600080fd5b506100a56100d5366004610553565b6001600160a01b031660009081526001602052604090205460ff1690565b3480156100ff57600080fd5b50600254610113906001600160a01b031681565b6040516001600160a01b0390911681526020016100b1565b34801561013757600080fd5b5061014160005481565b6040519081526020016100b1565b61011361015d3660046105de565b6101a2565b34801561016e57600080fd5b50600354610113906001600160a01b031681565b34801561018e57600080fd5b50600454610113906001600160a01b031681565b60035460008054909182916101c0916001600160a01b03169061038e565b60025460008054929350916101de916001600160a01b03169061038e565b6040517fc4d66de80000000000000000000000000000000000000000000000000000000081526001600160a01b0380831660048301529192509083169063c4d66de8906024016020604051808303816000875af1158015610243573d6000803e3d6000fd5b505050506040513d601f19601f8201168201806040525081019061026791906106df565b506040517f40b45cee0000000000000000000000000000000000000000000000000000000081526001600160a01b038216906340b45cee906102af9087908690600401610751565b6020604051808303816000875af11580156102ce573d6000803e3d6000fd5b505050506040513d601f19601f820116820180604052508101906102f291906106df565b507fed8067e45c9ef60a61185758d70fd83f83cdb0c7a8c3ee1c01b47242fcb8387f818386600001518760200151886040015189606001518a608001518b60a001516040516103489897969594939291906107bf565b60405180910390a16001600160a01b03811660009081526001602081905260408220805460ff19169091179055805490806103828361081d565b91905055505050919050565b60008061039b84846103df565b90506103b18360001b828051906020012061042a565b91506001600160a01b0382163b156103c957506103d9565b6103d56000848361043e565b9150505b92915050565b606082826040516020016103f591815260200190565b60408051601f19818403018152908290526104139291602001610844565b604051602081830303815290604052905092915050565b600061043783833061050d565b9392505050565b600083471015610487576040517fe4bbecac0000000000000000000000000000000000000000000000000000000081524760048201526024810185905260440160405180910390fd5b81516000036104c2576040517f4ca249dc00000000000000000000000000000000000000000000000000000000815260040160405180910390fd5b8282516020840186f590506001600160a01b038116610437576040517f741752c200000000000000000000000000000000000000000000000000000000815260040160405180910390fd5b6000604051836040820152846020820152828152600b8101905060ff815360559020949350505050565b80356001600160a01b038116811461054e57600080fd5b919050565b60006020828403121561056557600080fd5b61043782610537565b634e487b7160e01b600052604160045260246000fd5b60405160c0810167ffffffffffffffff811182821017156105a7576105a761056e565b60405290565b604051601f8201601f1916810167ffffffffffffffff811182821017156105d6576105d661056e565b604052919050565b600060208083850312156105f157600080fd5b823567ffffffffffffffff8082111561060957600080fd5b9084019060c0828703121561061d57600080fd5b610625610584565b61062e83610537565b815261063b848401610537565b8482015260408301356040820152606083013560608201526080830135608082015260a08301358281111561066f57600080fd5b80840193505086601f84011261068457600080fd5b8235828111156106965761069661056e565b6106a8601f8201601f191686016105ad565b925080835287858286010111156106be57600080fd5b808585018685013760009083019094019390935260a0830152509392505050565b6000602082840312156106f157600080fd5b8151801515811461043757600080fd5b60005b8381101561071c578181015183820152602001610704565b50506000910152565b6000815180845261073d816020860160208601610701565b601f01601f19169290920160200192915050565b6040815260006001600160a01b0380855116604084015280602086015116606084015260408501516080840152606085015160a0840152608085015160c084015260a085015160c060e08501526107ac610100850182610725565b9250508084166020840152509392505050565b60006101006001600160a01b03808c168452808b166020850152808a1660408501528089166060850152508660808401528560a08401528460c08401528060e084015261080e81840185610725565b9b9a5050505050505050505050565b60006001820161083d57634e487b7160e01b600052601160045260246000fd5b5060010190565b7f3d60ad80600a3d3981f3363d3d373d3d3d363d7300000000000000000000000081526bffffffffffffffffffffffff198360601b1660148201527f5af43d82803e903d91602b57fd5bf300000000000000000000000000000000006028820152600082516108ba816037850160208701610701565b91909101603701939250505056fea26469706673582212207934c89b5601a313a3fdefd23a5bc3e6ea579e92188b888da11aa16c7b9b705464736f6c63430008140033",
  "linkReferences": {},
  "deployedLinkReferences": {}
}